:020000040000FA
:0400000080313328F0
:100008007E1480312E00961E0A280B281B288C1E71
:100018000E280F281B2808302000960621001314EC
:10002800DC3020009C002E008C1220009E132E0035
:100038000D1C1F2820283128171C23282428312884
:1000480021000D082000CC0021000C082000CB0066
:100058002E000D102000CA01CA0A7E100900803146
:1000680035282000CA01CB01CC017E102000823146
:10007800942A200023088039A8002808AD002335D9
:10008800A8002808B300A21F4A284B284C2833147C
:1000980033080319502851286028330A031D5528AE
:1000A80056285E280030A3000030A2000030A100CE
:1000B8000030A000A21768280030A3000030A2007A
:1000C8000030A1000030A00027088039A8002808C7
:1000D800AD062735A8002808B200A61F7428752881
:1000E80076283214320803197A287B288A28320A9B
:1000F800031D7F28802888280030A7000030A6002C
:100108000030A5000030A400A61792280030A700F0
:100118000030A6000030A5000030A4003208031902
:10012800962897289C283308031D9B289C28A528D7
:100138000030A3000030A2000030A1000030A00071
:10014800932A2008A8002808F000260886312826C7
:10015800803171082000B9007008B8003808A8007C
:10016800A901AA01AB012B08B1002A08B00029088F
:10017800AF002808AE003908A800A901AA01AB0100
:100188002B08B7002A08B6002908B5002808B400CB
:100198002108A8002808F000250886312826803183
:1001A80071082000B9007008B8003808A800A90133
:1001B800AA01AB012808AE072908AF3D2A08B03DBF
:1001C8002B08B13D3908A800A901AA01AB012808EC
:1001D800B4072908B53D2A08B63D2B08B73D2208C3
:1001E800A8002808F00024088631282680317108E4
:1001F8002000B9007008B8003808A800A901AA01B1
:10020800AB012808AE072908AF3D2A08B03D2B08E6
:10021800B13D3908A800A901AA01AB012808B40713
:100228002908B53D2A08B63D2B08B73D0830AE353C
:10023800AF0DB00DB10D890B1B292108A8002808A6
:10024800F000240886312826803171082000B90082
:100258007008B8003808AE073908AF3D0030B03D27
:10026800B13D2008A8002808F00025088631282676
:10027800803171082000B9007008B8003808AE074E
:100288003908AF3D0030B03DB13D0830AE35AF0D57
:10029800B00DB10D890B4A292008A8002808F000E4
:1002A800240886312826803171082000B90070089A
:1002B800B8003808AE073908AF3D0030B03DB13D51
:1002C8002108A8002808F000260886312826803151
:1002D80071082000B9007008B8003808B407390858
:1002E800B53D0030B63DB73D2208A8002808F0000B
:1002F800250886312826803171082000B900700849
:10030800B8003808B4073908B53D0030B63DB73DE8
:100318002208A8002808F0002608863128268031FF
:1003280071082000B9007008B8003808A80039081A
:10033800A900AA01AB010830A835A90DAA0DAB0D7B
:10034800890BA0292808B4072908B53D2A08B63D15
:100358002B08B73D2E08A8002F08A9003008AA00CE
:100368003108AB001830AB36AA0CA90CA80C890BC5
:10037800B7292808B4072908B53D2A08B63D2B082F
:10038800B73D0830AE35AF0DB00DB10D890BC6299C
:1003980033083207A800A901A90D2808823EB80031
:1003A800FF30293DB900EF290130B435B50DB60D40
:1003B800B70D890BD929B11FE229E329E42934149F
:1003C8000130AE35AF0DB00DB10D890BE529FF3009
:1003D800B807FF30B93DB61FF229F329D829B20171
:1003E800B11FF729F829142AFF302E05A800FF307D
:1003F8002F05A900FF303005AA007F303105AB007A
:100408002B082A042904280403190B2A0C2A0F2A6A
:10041800B201B20A142A341C122A132A142A0C2AEA
:1004280032080319182A192A412A0130B407003062
:10043800B53D0030B63D0030B73D371C242A252A8B
:10044800412A3408A8003508A9003608AA00370848
:10045800AB000130AC00AB37AA0CA90CA80CAC0B54
:100468002F2A2B08B7002A08B6002908B500280843
:10047800B4000130B8070030B93D3908803AA80007
:1004880080302802031D4A2AFF303802031C4D2AF7
:100498004E2A582A7F302000B7008030B60000303E
:1004A800B5000030B400872A20003908803AA80037
:1004B80080302802031D622A013038020318652A99
:1004C800662A712A00302000B7000030B6000030DC
:1004D800B5000030B400AD01872A20003808A80014
:1004E8002808B300FF30B405FF30B5057F30B605E6
:1004F8000030B705331C812A822A832AB61733367F
:10050800A8002808B7002D08A8002808B70437084D
:10051800A3003608A2003508A1003408A00008008E
:1005280031008D010230930032008C170C08F3392A
:1005380008388C000C1FA12AA22A9E2A200091119B
:100548009611CB01CC018B170B178631C12682314E
:1005580086316726823186319A2682318431DB24BE
:100568008231F201F20A0130863105268231E33008
:10057800F2008630F3000630F4000030F5008631D2
:100588004B268231DF308631D126823143308631A5
:10059800D126823120009E174A080319D42AD52A69
:1005A800D02A4B08F0004C08F100890D893B8909D5
:1005B800F200F300013083315B238231730820009D
:1005C800A7007208A6007108A5007008A4003E30B4
:1005D800A300F530A200C230A1008F30A000803106
:1005E8003D20823120002308BD002208BC002108DC
:1005F800BB002008BA0084310724823120003B0860
:10060800CC003A08CB000130C8000030C900352BB7
:100618000A30F0000030F1004C08F3004B08F200FB
:100628008531342582317008303E2000C5004808E5
:10063800463E86008701450881000A30F0000030F8
:10064800F1004C08F3004B08F20084317C2482311D
:1006580071082000CC007008CB00FF30C807FF30BD
:10066800C93DC91F382B392B0C2B0530C50045084F
:10067800F20001308631052682314630F200003022
:10068800F3000230F4000030F50086314B26823149
:1006980002302000A4000030A500463086318126B3
:1006A800823120009E17CA01D02A80313328F800F1
:1006B80078080319602B612B752BF31F642B652BAE
:1006C800752B7009FA007109FB007209FC007309A7
:1006D800FD00FA0A0319FB0A0319FC0A0319FD0AAB
:1006E8007D2B7308FD007208FC007108FB00700880
:1006F800FA007308720471047004031D842B852B9F
:100708008E2B0030F3000030F2000030F100003092
:10071800F000062C9630F4007408F9009E2B013086
:10072800F4007408F9070130FD36FC0CFB0CFA0CD8
:10073800890B982BFE307D05031DA32BA42B932B2F
:10074800B82B0130F4007408F9070130FA070030BB
:10075800FB3D0030FC3D0030FD3D0130FD36FC0C1A
:10076800FB0CFA0C890BB22BFF307D05031DBD2B4A
:10077800BE2BA52BC82B0130F9020130FA35FB0D31
:10078800FC0DFD0D890BC22BFC1BCB2BCC2BD22BCC
:10079800023079020318D12BD22BBF2B7918D52B15
:1007A800D62BDE2BFF30FA05FF30FB057F30FC052A
:1007B800FF30FD050310F90C7908F400F501F60186
:1007C800F7011830F435F50DF60DF70D890BE62B0A
:1007D8007408FA047508FB047608FC047708FD041D
:1007E80078080319F82BF92BFE2BF31FFC2BFD2B94
:1007F800FE2BFD177D08F3007C08F2007B08F10052
:100808007A08F0000800031020003C0D3D0DBE00E2
:100818003E08C4004408031D122C132C1C2C003065
:10082800BD000030BC000030BB000030BA007B2C9B
:100838003A08BE003B08BF003C08C0003D08C100A4
:100848001F30C136C00CBF0CBE0C890B252C3E08CE
:10085800C2004208C300BC17FF30BA05FF30BB0511
:10086800FF30BC050030BD059630C402C41F3D2CC6
:100878003E2C562C4408803A973E0318442C452CAD
:10088800462C132C0130BD36BC0CBB0CBA0C890BA2
:10089800472C0130BE003E08C407031D542C552CBC
:1008A800462C6B2C20304402031C5B2C5C2C662CE1
:1008B800132C0130BA35BB0DBC0DBD0D890B5E2C58
:1008C8000130C4024408031D6A2C6B2C5D2C4308BC
:1008D80003196F2C702C7B2CBA09BB09BC09BD0904
:1008E800BA0A0319BB0A0319BC0A0319BD0A08008E
:1008F800F601F11F802C812C882CF009F109F00AEF
:100908000319F10AF601F60AF31F8B2C8C2C952C8F
:10091800F209F309F20A0319F30A0130F400740822
:10092800F606F701F8017008710403199C2C9D2C38
:10093800CC2CF501F50AA92C0130F035F10D890B05
:10094800A12C0130F4007408F507F11FAC2CAD2C74
:10095800A02C0130F735F80D890BAE2C7108730205
:10096800031DB82C70087202031CBB2CBC2CC12CB4
:100978007008F2027108F33B77140130F136F00C7D
:10098800890BC22C0130F502031DCB2CCC2CAD2CCD
:1009980076080319D02CD12CD62CF709F809F70AB8
:1009A8000319F80A7808F1007708F0000800200019
:1009B800941214139413991219139913C330FB004A
:1009C800CD30890BE52CFB0BE52C0000303086314F
:1009D800DA2684310830FB00CA30890BF12CFB0B76
:1009E800F12C30308631DA2684313230890BFA2CFA
:1009F80030308631DA2684313230890B012D383097
:100A08008631DA2684312130890B082D0000F20165
:100A1800F30100308531E12584312130890B122D15
:100A2800000001308631DA2684310430FB00E430DE
:100A3800890B1C2DFB0B1C2D003206308631DA2663
:100A480084312130890B262D0000F201F301013099
:100A58008531E12584311030890B302D00320800B2
:100A6800F601F31F382D392D402DF209F309F20A4A
:100A78000319F30AF601F60AF11F432D442D492DF7
:100A8800F009F109F00A0319F10A70087104031951
:100A98004E2D4F2D782DF501F50A5B2D0130F035DF
:100AA800F10D890B532D0130F4007408F507F11F7F
:100AB8005E2D5F2D522D71087302031D652D700880
:100AC8007202031C682D692D6D2D7008F2027108E1
:100AD800F33B0130F136F00C890B6E2D0130F50235
:100AE800031D772D782D5F2D760803197C2D7D2D1C
:100AF800822DF209F309F20A0319F30A7308F100C7
:100B08007208F00008002000A0002008FA007A0807
:100B1800A1000130A2000030A30022009E1C952DE8
:100B2800962D912D1A30F0000130F1002000210897
:100B3800FA007A08F2000130F3000030F400853141
:100B4800B62585310130FA007A082000A107013066
:100B5800A2020030A33B22082304031DB42DB52DA7
:100B6800912D08007208F5007508F9007108F70062
:100B78007008F600D42D7908860087010108F50071
:100B88007508F8000130F5007508F9077608860041
:100B980077088700780881000130F6070030F73DB4
:100BA8000130F3020030F43B730A031DDF2D740A91
:100BB800031DDF2DE02DBF2D0800F9000830730458
:100BC800F4007208F5000130F535890BE82D08307E
:100BD8007504F6007908F7000130F735FF3E031D6C
:100BE800F12D7735760474040838F8007808FA008F
:100BF8007A088631DA2685311030890B012E0032C9
:100C08000800F4007403031D0A2E0B2E142E72081C
:100C18007F3EF3007308F50075088631DA268631C1
:100C280002307406031D192E1A2E232E7208BF3E99
:100C3800F3007308F50075088631DA2686311A3014
:100C4800890B242E00320800F800F401F501700821
:100C5800F200F3017208F6007308F700781C352ECD
:100C6800362E3A2E7608F4077708F53D0130F6352A
:100C7800F70D890B3B2E0310F80C7808031D452E41
:100C8800462E322E7508F1007408F0000800F601AF
:100C9800F7015C2E7208760784007308773D85009B
:100CA80000088631D12686310130F6070030F73D3D
:100CB80075087702031D622E74087602031C652EE0
:100CC800662E4E2E0800200011163E0038162E0003
:100CD8000D1017140130210098001A12FC309A05E3
:100CE80004309E001608F839033896001315931738
:100CF8000330890B7D2E00000800FB00FC01FD017C
:100D08008E2E7B087C078531872586310130FC07CC
:100D18000030FD3D200025087D02031D952E240886
:100D28007C02031C982E992E852E080022001E1581
:100D38001E1200309C0019309B009D179E161D1630
:100D480010303E00A600CE134E1320001317931741
:100D58002E0019120800F000200099139201700863
:100D680097009917A630890BB72E003220009913E7
:100D7800A630890BBD2E0032080020001E161F0861
:100D88001F3940389F001F08F03904389F00DC30B5
:100D98009C002E008C1296160800F100200099166F
:100DA800191371088631AF2686310800F10020003A
:100DB8009912191371088631AF26863108007434E8
:0C0DC80020343D3420343034303400340A
:020000040001F9
:0A000E008C3FFF3F9F3FFF3FFF3F85
:00000001FF
